:020000040000FA
:0600000060EF0DF012009C
:0608000060EF0DF0120094
:0208EA0000000C
:0408EC009490CA908A
:1008F000CA82CA86CA88CA8ACA8CE90ECB6E00012F
:10090000A569A669010EA76FA86BA96FAA6BAB6F4B
:10091000AC6BAD6FAE6BAF6FB06BB16FB26BB36FF3
:10092000B46BB36FB46BB56FB66BB76BB86BB96BB9
:10093000BA6BBB6BBC6BBD6BBE6BBF6BC06BC16B73
:10094000C26BC36BC46BC56BC66BC76BC86BCA8409
:100950009D821200060E0001DB5D03E36D50020B69
:1009600001E0ECD1ECD90001A51D01E1A61D01E1DA
:10097000E5D19EA2E3D1CA948B90240EE66E6EEC74
:100980000DF0E5528B805A0EE66E6EEC0DF0E552DE
:10099000A5C0E6FF9BDAE5520001010EB71901E19F
:1009A000B85104E1E66892DAE5521AD0020EB7199E
:1009B00001E1B85107E1E66889DAE552E66886DACE
:1009C000E5520ED0030EB71901E1B85109E1E6680E
:1009D0007DDAE552E6687ADAE552E66877DAE552DA
:1009E0008B90240EE66E6EEC0DF0E5528B805A0E65
:1009F000E66E6EEC0DF0E552A7C0E6FF67DAE55251
:100A00000001010EB91901E1BA5104E1E6685EDAAC
:100A1000E5521AD0020EB91901E1BA5107E1E668B0
:100A200055DAE552E66852DAE5520ED0030EB919EE
:100A300001E1BA5109E1E66849DAE552E66846DAC9
:100A4000E552E66843DAE5528B90240EE66E6EECD2
:100A50000DF0E5528B805A0EE66E6EEC0DF0E5520D
:100A6000A9C0E6FF33DAE5520001010EBB1901E12E
:100A7000BC5104E1E6682ADAE5521AD0020EBB192D
:100A800001E1BC5107E1E66821DAE552E6681EDAC9
:100A9000E5520ED0030EBB1901E1BC5109E1E66835
:100AA00015DAE552E66812DAE552E6680FDAE55241
:100AB0008B90240EE66E6EEC0DF0E5528B805A0E94
:100AC000E66E6EEC0DF0E552ABC0E6FFFFD9E552E5
:100AD0000001010EBD1901E1BE5104E1E668F6D93D
:100AE000E5521AD0020EBD1901E1BE5107E1E668D8
:100AF000EDD9E552E668EAD9E5520ED0030EBD19EC
:100B000001E1BE5109E1E668E1D9E552E668DED9C6
:100B1000E552E668DBD9E5528B90240EE66E6EEC6A
:100B20000DF0E5528B805A0EE66E6EEC0DF0E5523C
:100B3000ADC0E6FFCBD9E5520001010EBF1901E1BE
:100B4000C05104E1E668C2D9E5521AD0020EBF19BD
:100B500001E1C05107E1E668B9D9E552E668B6D9C6
:100B6000E5520ED0030EBF1901E1C05109E1E6685C
:100B7000ADD9E552E668AAD9E552E668A7D9E552AB
:100B80008B90240EE66E6EEC0DF0E5528B805A0EC3
:100B9000E66E6EEC0DF0E552AFC0E6FF97D9E55278
:100BA0000001010EC11901E1C25104E1E6688ED9CC
:100BB000E5521AD0020EC11901E1C25107E1E668FF
:100BC00085D9E552E66882D9E5520ED0030EC119E7
:100BD00001E1C25109E1E66879D9E552E66876D9C2
:100BE000E552E66873D9E5528B90240EE66E6EEC02
:100BF0000DF0E5528B805A0EE66E6EEC0DF0E5526C
:100C0000B1C0E6FF63D9E5520001010EC31901E14D
:100C1000C45104E1E6685AD9E5521AD0020EC3194C
:100C200001E1C45107E1E66851D9E552E6684ED9C1
:100C3000E5520ED0030EC31901E1C45109E1E66883
:100C400045D9E552E66842D9E552E6683FD9E55212
:100C50008B90240EE66E6EEC0DF0E5528B805A0EF2
:100C6000E66E6EEC0DF0E552B3C0E6FF2FD9E5520B
:100C70000001010EC51901E1C65104E1E66826D95B
:100C8000E5521AD0020EC51901E1C65107E1E66826
:100C90001DD9E552E6681AD9E5520ED0030EC519E2
:100CA00001E1C65109E1E66811D9E552E6680ED9BD
:100CB000E552E6680BD9E5528B90240EE66E6EEC99
:100CC0000DF0E5528B805A0EE66E6EEC0DF0E5529B
:100CD000B5C0E6FFFBD8E5520001010EC71901E1DE
:100CE000C85104E1E668F2D8E5521AD0020EC719DD
:100CF00001E1C85107E1E668E9D8E552E668E6D8BF
:100D0000E5520ED0030EC71901E1C85109E1E668AA
:100D1000DDD8E552E668DAD8E552E668D7D8E5527C
:100D20008B90240EE66E6EEC0DF0E5528B80F00E8B
:100D3000E66E6EEC0DF0E5529E92CA841200D9CF99
:100D4000E6FFE1CFD9FFE652200EE66E810EE66E99
:100D5000000EE66E91EC0BF0E552E552E552000113
:100D6000606F6051000856E28151A56FA66B8251F9
:100D7000B76FB86B8351A76FA86B8451B96FBA6B0B
:100D80008551A96FAA6B8651BB6FBC6B8751AB6F46
:100D9000AC6B8851BD6FBE6B8951AD6FAE6B8A5124
:100DA000BF6FC06B8B51AF6FB06B8C51C16FC26B9B
:100DB0008D51B16FB26B8E51C36FC46B8F51B36FD6
:100DC000B46B9051C56FC66B9151B56FB66B9251B4
:100DD000C76FC86B010EDF6EDF5020080AE3DF0427
:100DE000EA6A610FE96E000EEA22EF6ADF28DF6E21
:100DF000F3D704010CAF03D0F1EC0BF0FAD70A0ED5
:100E0000E66E610EE66E000EE66E57EC0BF0E552F4
:100E1000E552E552E552E552E7CFD9FF1200D9CFAE
:100E2000E6FFE1CFD9FFE65204011351030A20E0A7
:100E3000010A01E022D0125101E01AD0010EDF6E4A
:100E4000DF50200814E3DF04EA6A500FE96E040E55
:100E5000EA22EF50E66EDF04EA6A700FE96E040ED4
:100E6000EA22E552E750EF6EDF28DF6EE9D700D0C7
:100E70000401125101E001D000D0E552E552E7CF64
:100E8000D9FF1200D9CFE6FFE1CFD9FFE65200012A
:100E9000700ED56F040ED66F00010A0ED96FE552A1
:100EA000E552E7CFD9FF1200D9CFE6FFE1CFD9FF56
:100EB000E6520001900ED56F040ED66F0001200E91
:100EC000D96FE552E552E7CFD9FF1200D9CFE6FF3F
:100ED000E1CFD9FF00000000FE0EDBCFF3FFDB0601
:0E0EE000F3500009F7E1E552E7CFD9FF120009
:020EEE000401FD
:100EF0001051600BE842E842E842E842E84200094B
:100F000001E055D01151070A51E00B0A4FE0070AE2
:100F100040E0010A2CE00B0A28E0020A26E0030A5E
:100F200022E0080A12E0010A0EE00F0A0AE0030AB2
:100F300001E03CD00001010ED46F0001040EDB6F14
:100F400036D036D834D090D832D00001010ED46FCC
:100F50000001DD0ED56F000ED66F0001DC9300019D
:100F6000010ED96F24D0A8D822D0F4D820D0000107
:100F7000010ED46F040114510001D56FD66BDE0E43
:100F8000D527000ED6230001DC930001010ED96F96
:100F90000ED00001010ED46F04011451EA6ADE0F75
:100FA000E96E000EEA2212C4EFFF01D000D0120059
:100FB000800E0401105D57E11351030A34E0010A69
:100FC00010E0030A01E04DD00001010ED46F0001D2
:100FD0002A0ED56F190ED66F120E0001D96FDA6B7B
:100FE00040D00001010ED46F04011251F66EF76A71
:100FF000D890F636F736C40EF626190EF7220900F9
:10100000F5CFD5F00A00F5CFD6F0020E0001F76A51
:10101000D525F66ED651F7220900F5CFD9F00A0092
:10102000F5CFDAF01ED00001010ED46F0401125189
:10103000F66EF76AD890F636F736C80EF626190E11
:10104000F7220900F5CFD5F00A00F5CFD6F0D5C0CC
:10105000F6FFD6C0F7FF0800F5500001D96FDA6B34
:1010600000D00001DC8312000001010ED46F0F0ECE
:10107000E66E710EE66E0F0EE66E80EC0CF0E55239
:10108000E552E552010EE66EDE0EE66E000EE66EED
:1010900080EC0CF0E552E552E55212C4DDF004019B
:1010A000125104E10001050EDB6F05D00001060EB0
:1010B000DB6F42EC0BF012000401306B316B04016A
:1010C00010511F0B020A14E0030A0EE0010A01E0AE
:1010D00033D00001010ED46F040130810001DCA186
:1010E00002D00401308328D00001010ED46F24D037
:1010F0000001010ED46F040114510F0B080DF350C1
:10110000036A000F026E040E03221451800B01E0EB
:10111000010E040DF35000010224D76F000E0320CE
:10112000D86FD7C0E9FFD8C0EAFFEF50040B03E047
:101130000401010E306F00D00001D4050AE1000166
:10114000300ED56F040ED66F0001DC930001020E45
:10115000D96F12000401120510E110511F0B000994
:101160000CE10001010ED46F030E0401115D03E1D7
:101170000001DC8102D00001DC91040112513AE14E
:1011800010511F0B020836E114510F0B000932E019
:101190000001010ED46F040114510F0B080DF35020
:1011A000036A000F026E040E03221451800B01E04B
:1011B000010E040DF35000010224D76F000E03202E
:1011C000D86F030E0401115D07E1840ED7C0E9FF5B
:1011D000D8C0EAFFEF6E0ED014AF06D0D7C0E9FF3B
:1011E000D8C0EAFFEF6A06D0880ED7C0E9FFD8C0A2
:0611F000EAFFEF6E1200A1
:0A11F6006C500BE1040100513C0BAA
:10120000E842E8420D0802E108D801D03CD804D0F9
:10121000040E6C5C01E14DD81200D9CFE6FFE1CF9E
:10122000D9FFE6520001D36BD46BD96BDA6B77EC44
:1012300007F0DF6ADF50026E036A010E025C000EE7
:1012400003581BE20001D45101E017D0F76ADF34E4
:10125000FE0BF736F66ECE0EF626190EF7220900B3
:10126000F5CF02F00800F5CF03F004D003C0FAFF79
:101270000250F96EFBDFDF2ADDD7E3D8E552E552F5
:10128000E7CFD9FF1200020E0001D35D10E19CD818
:10129000020E0001D45D02E10FEC07F0040100BD75
:1012A00003D0C80E006F02D0880E006F01D00FD996
:1012B0001200040E0001DB5D0AE112C46EFF6E50E5
:1012C000000803E2050EDB6F02D0030EDB6F0001A6
:1012D000D3050AE10BD8040104BD03D0C80E046F86
:1012E00002D0880E046F01D0F2D81200D9CFE6FFE9
:1012F000E1CFD9FF020EE1260001200ED95D000EDC
:10130000DA5905E2D9C0DEFFDAC0DDFF03D0200ED6
:10131000DE6EDD6A040104930491010EDB500413B8
:10132000DFCF05F4000EDB500001D95F010EDB506A
:10133000DA5B300ED76F040ED86F0001DCA31ED02D
:10134000D9CFE9FFDACFEAFFEE50ED1016E0D5C0B5
:10135000F6FFD6C0F7FF0800F550D7C0E9FFD8C0A8
:10136000EAFFEF6E0001D72B000ED823D52BD62332
:10137000DF06010E01E2DB06E3D71CD0D9CFE9FF7F
:10138000DACFEAFFEE50ED1015E0D5C0E9FFD6C088
:10139000EAFFEF50D7C0E9FFD8C0EAFFEF6E0001C7
:1013A000D72B000ED823D52BD623DF06010E01E262
:1013B000DB06E4D7020EE15C02E2E16AE552E16E8F
:1013C000E552E7CFD9FF1200D9CFE6FFE1CFD9FF31
:1013D000020EE126030E04010015E76E010EE7CFB1
:1013E000DBFF01C4DFFFDE500001D927DD50DA2327
:1013F000300ED56F040ED66FD9CFE9FFDACFEAFFF2
:10140000EE50ED1014E0D5C0E9FFD6C0EAFFEF5072
:10141000D7C0E9FFD8C0EAFFEF6ED72B000ED82364
:10142000D52BD623DF06010E01E2DB06E5D7020E3F
:10143000E15C02E2E16AE552E16EE552E7CFD9FFF5
:1014400012006D980001D4510CE10401200E016FCF
:10145000100E026F040E036F840E006F0401046F00
:1014600035D0040110AF22D00001D9510401165D1E
:101470000001DA510401175904E216C4D9F017C467
:10148000DAF034DF0001010ED36F0401200E016F8A
:10149000100E026F040E036F800E006F0401300EF9
:1014A000066F040E076FC80E046F10D00001020E05
:1014B000D36F0401056BC80E046F0401200E016F89
:1014C000300E026F040E036FC80E006F1200000191
:1014D000D36B0401200E016F100E026F040E036F18
:0A14E000880E006F0401046B120077
:0614EA00040110511F0B6C
:1014F000010801E079D0145101E076D0060E115DAB
:101500002EE11351230A28E0010A13E0030A01E047
:1015100024D00001020ED46F0001DD0505E10001B9
:101520004E0ED56F190ED66F090E0001D96FDA6B0A
:1015300014D00001020ED46F0001DD0505E10001A9
:10154000950ED56F190ED66F0001DD0504E12F0E43
:101550000001D96FDA6B01D000D00001DC830401F7
:101560001051600BE842E842E842E842E8420108D4
:1015700001E03AD011510B0A31E0080A21E0090AD2
:1015800019E0080A09E00B0A05E0080A01E02CD07E
:101590002CD82AD055D828D00001020ED46F0001D3
:1015A000DF0ED56F000ED66F0001DC930001010E37
:1015B000D96F1AD00001020ED46F13C4DFF014D01B
:1015C0000001020ED46F0001E00ED56F000ED66F41
:1015D0000001DC930001010ED96F06D00001020E5C
:1015E000D46F12C4E0F000D01200D9CFE6FFE1CFF3
:1015F000D9FFE65204011351030A11E0020A01E087
:1016000018D01251010A09E0010A01E007D00001D7
:10161000020ED46F42EC07F001D000D00AD0125174
:1016200001E006D00001020ED46F54EC07F000D0A8
:1016300000D00001DC93E552E552E7CFD9FF12005C
:1016400004011351030A10E0010A01E01AD01251FB
:1016500001E009D00001020ED46F0001500ED76FD7
:10166000040ED86F00D00DD0125101E009D0000156
:10167000020ED46F0001900ED76F040ED86F00D009
:1016800000D012000001E16B1E0E716E0401200EED
:10169000096F500E0A6F040E0B6F880E086F04015D
:1016A000700E0E6F040E0F6F400E0C6F1200D9CF2C
:1016B000E6FFE1CFD9FFE652FC0EDB50200805E241
:1016C000200EF36EFC0EF3CFDBFFDF6AFC0EDB5067
:1016D000DF5C19E2DF50E76EFD0EDBCFE9FFFE0EA7
:1016E000DBCFEAFFE750E926000EEA22EF50E66E74
:1016F000DF50EA6A700FE96E040EEA22E552E75005
:10170000EF6EDF2AE3D7FC0EDBCF0DF4400E0401B1
:101710000C170C7D880E0C13E552E552E7CFD9FF6C
:101720001200D9CFE6FFE1CFD9FF0001E16B040140
:1017300008BF31D0FC0EDBCF02F00951D880025433
:1017400003E2FC0E09C4DBFF0001E16BFC0EDB5081
:10175000E15D19E2E151EA6A500FE96E040EEA22F6
:10176000EF50E66EE151E76EFD0EDBCFE9FFFE0EB6
:10177000DBCFEAFFE750E926000EEA22E552E75008
:10178000EF6EE12BE3D70401200E096F400E08171E
:10179000087D880E08130001E15100D0E552E7CF23
:0417A000D9FF12005B
:0C17A4006DA60FD802D06DB613D800015E
:1017B000DB0508E16DBA06D0686A696A69806988E4
:1017C000020EDB6F12006D6A696A6D860001010E00
:1017D000DB6F12006D6A696A0001DB6B1200EAEFD1
:1017E0000BF00001DB5101E13AD06850040B04E03A
:1017F0006950040B01E041D86DB231D06850010B43
:1018000004E06950010B01E059D86850100B04E066
:101810006950100B01E024D86850400B04E0695077
:10182000400B01E040D86850200B04E06950200BC9
:1018300001E03BD86850020B04E06950020B01E064
:101840003BD8030E0001DB5D01E209D06850080BB4
:1018500006E06950080B03E0FBEC08F06896120004
:10186000698468986D82A19AF290A08AF28603003A
:10187000F2B007D8A09AF29612006D92699468941B
:1018800012000001DCA10ED0F8DF6D840001080E0B
:10189000E26F070EE36FE207000EE35BE251E31134
:1018A000FAE16D941200689C120070A003D067ECFE
:1018B0000AF07090689A1200689212006A6A686A68
:1018C0009F0E6B6E7B0E696E6E6A0F0EE66E710E6A
:1018D000E66E0F0EE66E14D8E552E552E552160E8E
:1018E000706E68A602D06896FCD76D9867EC0AF017
:1018F0000001DC910001DD6B0001030EDB6F1200C3
:10190000D9CFE6FFE1CFD9FFFD0EDBCFE9FFFE0E19
:10191000DBCFEAFFFC0EDB5004E0EE6AFC0EDB06D8
:0A192000F9D7E552E7CFD9FF120016
:06192A00120100020000A2
:101930000020250999120100010200010902290075
:10194000010100A032090400000203000000092187
:1019500001010001222F000705810320000A07056D
:10196000010320000A040309041C0345006E0064FF
:10197000007500720061006E006300650020005277
:10198000002F004300100348005200200050004385
:10199000005400780006A0FF0901A1010903150009
:1019A0002600FF750895208102090415002600FF16
:1019B000750895209102090515002600FF75089508
:1019C00020B102C03C193C19651969198519EA143E
:1019D000EA0EF66E080EF76E000EF86E00010900B2
:1019E000F550CE6F0900F550CF6F03E1CE6701D0FF
:1019F0003DD00900F550C96F0900F550CA6F0900C4
:101A0000F550CB6F09000900F550E96E0900F5505B
:101A1000EA6E090009000900F550CC6F0900F55085
:101A2000CD6F09000900F6CFD0F0F7CFD1F0F8CF95
:101A3000D2F0C9C0F6FFCAC0F7FFCBC0F8FF000163
:101A4000CC5302E1CD5307E00900F550EE6ECC0710
:101A5000F8E2CD07F9D7D0C0F6FFD1C0F7FFD2C06A
:0E1A6000F8FF0001CE07000ECF5BBFD71200CB
:021A6E0005D899
:101A700010D8AAEC04F0FCD712000F0EC112140EFD
:101A80006F6E0001DB6B0001DC6B0001DD6B76EF3C
:101A900004F0D2EC0BF06FBE02D0F1EC0BF01200B0
:101AA000000EF36E00EE00F0040E01D81200EA60A2
:101AB00002D0EE6AFCD7F350E9601200EE6AFCD760
:101AC00013EE00F023EE00F0F86A019CE8EC0CF055
:0C1AD0007CEC0DF037EC0DF0FBD71200A1
:041ADC00FF0EE350C6
:101AE000046E1B0E00D001D0200EE76EE72EFED74D
:081AF000042EFAD700D0120009
:021AF8001200DA
:00000001FF
